{
  "contractName": "Voting",
  "abi": [
    {
      "inputs": [
        {
          "internalType": "bytes32[]",
          "name": "candidatename",
          "type": "bytes32[]"
        }
      ],
      "payable": false,
      "stateMutability": "nonpayable",
      "type": "constructor"
    },
    {
      "constant": true,
      "inputs": [
        {
          "internalType": "uint256",
          "name": "",
          "type": "uint256"
        }
      ],
      "name": "candidates",
      "outputs": [
        {
          "internalType": "bytes32",
          "name": "name",
          "type": "bytes32"
        },
        {
          "internalType": "uint256",
          "name": "votecount",
          "type": "uint256"
        }
      ],
      "payable": false,
      "stateMutability": "view",
      "type": "function"
    },
    {
      "constant": true,
      "inputs": [
        {
          "internalType": "address",
          "name": "",
          "type": "address"
        }
      ],
      "name": "voters",
      "outputs": [
        {
          "internalType": "bool",
          "name": "voted",
          "type": "bool"
        },
        {
          "internalType": "uint256",
          "name": "vote",
          "type": "uint256"
        },
        {
          "internalType": "bool",
          "name": "right",
          "type": "bool"
        }
      ],
      "payable": false,
      "stateMutability": "view",
      "type": "function"
    },
    {
      "constant": false,
      "inputs": [
        {
          "internalType": "address",
          "name": "voter",
          "type": "address"
        }
      ],
      "name": "voterregistration",
      "outputs": [],
      "payable": false,
      "stateMutability": "nonpayable",
      "type": "function"
    },
    {
      "constant": false,
      "inputs": [
        {
          "internalType": "uint256",
          "name": "candidate",
          "type": "uint256"
        }
      ],
      "name": "vote",
      "outputs": [],
      "payable": false,
      "stateMutability": "nonpayable",
      "type": "function"
    },
    {
      "constant": true,
      "inputs": [],
      "name": "winnercandidate",
      "outputs": [
        {
          "internalType": "bytes32",
          "name": "name",
          "type": "bytes32"
        }
      ],
      "payable": false,
      "stateMutability": "view",
      "type": "function"
    },
    {
      "constant": true,
      "inputs": [],
      "name": "totalvoter_no",
      "outputs": [
        {
          "internalType": "uint256",
          "name": "total",
          "type": "uint256"
        }
      ],
      "payable": false,
      "stateMutability": "view",
      "type": "function"
    },
    {
      "constant": true,
      "inputs": [],
      "name": "totalvote_no",
      "outputs": [
        {
          "internalType": "uint256",
          "name": "votes",
          "type": "uint256"
        }
      ],
      "payable": false,
      "stateMutability": "view",
      "type": "function"
    }
  ],
  "bytecode": "0x608060405260008055600060015534801561001957600080fd5b5060405161098f38038061098f8339818101604052602081101561003c57600080fd5b810190808051604051939291908464010000000082111561005c57600080fd5b8382019150602082018581111561007257600080fd5b825186602082028301116401000000008211171561008f57600080fd5b8083526020830192505050908051906020019060200280838360005b838110156100c65780820151818401526020810190506100ab565b5050505090500160405250505033600260006101000a81548173ffffffffffffffffffffffffffffffffffffffff021916908373ffffffffffffffffffffffffffffffffffffffff160217905550600160046000600260009054906101000a900473ffffffffffffffffffffffffffffffffffffffff1673ffffffffffffffffffffffffffffffffffffffff1673ffffffffffffffffffffffffffffffffffffffff16815260200190815260200160002060020160006101000a81548160ff02191690831515021790555060008090505b815181101561021a57600360405180604001604052808484815181106101b957fe5b6020026020010151815260200160008152509080600181540180825580915050906001820390600052602060002090600202016000909192909190915060008201518160000155602082015181600101555050508080600101915050610197565b5060016000819055505061075c806102336000396000f3fe608060405234801561001057600080fd5b506004361061007d5760003560e01c80638a5a070f1161005b5780638a5a070f146101175780639b06e4da146101355780639bfd3f2314610153578063a3ec138d146101975761007d565b80630121b93f14610082578063061f4198146100b05780633477ee2e146100ce575b600080fd5b6100ae6004803603602081101561009857600080fd5b8101908080359060200190929190505050610205565b005b6100b861034e565b6040518082815260200191505060405180910390f35b6100fa600480360360208110156100e457600080fd5b8101908080359060200190929190505050610358565b604051808381526020018281526020019250505060405180910390f35b61011f610389565b6040518082815260200191505060405180910390f35b61013d610392565b6040518082815260200191505060405180910390f35b6101956004803603602081101561016957600080fd5b81019080803573ffffffffffffffffffffffffffffffffffffffff16906020019092919050505061042c565b005b6101d9600480360360208110156101ad57600080fd5b81019080803573ffffffffffffffffffffffffffffffffffffffff1690602001909291905050506106e3565b604051808415151515815260200183815260200182151515158152602001935050505060405180910390f35b6000600460003373ffffffffffffffffffffffffffffffffffffffff1673ffffffffffffffffffffffffffffffffffffffff16815260200190815260200160002090508060020160009054906101000a900460ff1661026357600080fd5b8060000160009054906101000a900460ff166102e7576040517f08c379a000000000000000000000000000000000000000000000000000000000815260040180806020018281038252600f8152602001807f416c726561647920766f7465642121000000000000000000000000000000000081525060200191505060405180910390fd5b60018160000160006101000a81548160ff02191690831515021790555081816001018190555060016003838154811061031c57fe5b906000526020600020906002020160010160008282540192505081905550600180600082825401925050819055505050565b6000600154905090565b6003818154811061036557fe5b90600052602060002090600202016000915090508060000154908060010154905082565b60008054905090565b60008060009050600080600090505b6003805490508110156104055782600382815481106103bc57fe5b906000526020600020906002020160010154106103f857600381815481106103e057fe5b90600052602060002090600202016001015492508091505b80806001019150506103a1565b506003818154811061041357fe5b9060005260206000209060020201600001549250505090565b600260009054906101000a900473ffffffffffffffffffffffffffffffffffffffff1673ffffffffffffffffffffffffffffffffffffffff163373ffffffffffffffffffffffffffffffffffffffff16146104ef576040517f08c379a000000000000000000000000000000000000000000000000000000000815260040180806020018281038252601d8152602001807f4f6e6c79206368616972706572736f6e2063616e20726567697374657200000081525060200191505060405180910390fd5b600460008273ffffffffffffffffffffffffffffffffffffffff1673ffffffffffffffffffffffffffffffffffffffff16815260200190815260200160002060020160009054906101000a900460ff16156105b2576040517f08c379a00000000000000000000000000000000000000000000000000000000081526004018080602001828103825260168152602001807f416c72656164792072656769737465726564202121210000000000000000000081525060200191505060405180910390fd5b600460008273ffffffffffffffffffffffffffffffffffffffff1673ffffffffffffffffffffffffffffffffffffffff16815260200190815260200160002060000160009054906101000a900460ff1615610675576040517f08c379a00000000000000000000000000000000000000000000000000000000081526004018080602001828103825260118152602001807f20416c726561647920766f74656421212100000000000000000000000000000081525060200191505060405180910390fd5b6001600460008373ffffffffffffffffffffffffffffffffffffffff1673ffffffffffffffffffffffffffffffffffffffff16815260200190815260200160002060020160006101000a81548160ff0219169083151502179055506001600080828254019250508190555050565b60046020528060005260406000206000915090508060000160009054906101000a900460ff16908060010154908060020160009054906101000a900460ff1690508356fea265627a7a723158205b13534b0a229084e718bc146c48cba4ca396ab12e40aa28f934a0fe4187396c64736f6c63430005100032",
  "source": "//SPDX-License-Identifier:GPL-3.0\r\npragma solidity >0.4.21 <0.8.0;\r\n\r\ncontract Voting {\r\n    struct Voter {\r\n        bool voted;\r\n        uint256 vote;\r\n        bool right;\r\n    }\r\n    struct Candidate {\r\n        bytes32 name;\r\n        uint256 votecount;\r\n    }\r\n    uint256 totalvoter = 0;\r\n    uint256 totalvote = 0;\r\n    address chairperson;\r\n    Candidate[] public candidates;\r\n    mapping(address => Voter) public voters; //maaping address to the voter\r\n\r\n    constructor(bytes32[] memory candidatename) public {\r\n        chairperson = msg.sender; //address deploying the contract will be the chairperson\r\n        voters[chairperson].right = true; //voting right approved to the chairperson\r\n        for (\r\n            uint256 i = 0;\r\n            i < candidatename.length;\r\n            i++ //candidate name stored in the stack //Candidate({....}) creates temporary candidates object\r\n        ) {\r\n            candidates.push(Candidate({name: candidatename[i], votecount: 0}));\r\n        }\r\n        totalvoter = 1;\r\n    }\r\n\r\n    function voterregistration(\r\n        address voter //view??\r\n    ) public {\r\n        require(msg.sender == chairperson, \"Only chairperson can register\"); //only chairperson can register the voter\r\n\r\n        require(!voters[voter].right, \"Already registered !!!\"); //voter shouldnot be already registered\r\n\r\n        require(!voters[voter].voted, \" Already voted!!!\"); //voter shouldnot have voted\r\n\r\n        voters[voter].right = true; //right given to the voter\r\n        totalvoter += 1;\r\n    }\r\n\r\n    function vote(uint256 candidate) public {\r\n        Voter storage sender = voters[msg.sender];\r\n\r\n        require(sender.right);\r\n        require(sender.voted, \"Already voted!!\");\r\n        sender.voted = true;\r\n        sender.vote = candidate;\r\n        candidates[candidate].votecount += 1;\r\n        totalvote += 1;\r\n    }\r\n\r\n    function winnercandidate() public view returns (bytes32 name) {\r\n        uint256 winningvote = 0;\r\n        uint256 p_winner;\r\n        for (uint256 p = 0; p < candidates.length; p++) {\r\n            if (candidates[p].votecount >= winningvote) {\r\n                winningvote = candidates[p].votecount;\r\n                p_winner = p;\r\n            }\r\n        }\r\n        name = candidates[p_winner].name;\r\n    }\r\n\r\n    function totalvoter_no() public view returns (uint256 total) {\r\n        total = totalvoter;\r\n    }\r\n\r\n    function totalvote_no() public view returns (uint256 votes) {\r\n        votes = totalvote;\r\n    }\r\n}\r\n",
  "sourcePath": "G:/Blockchain/Practices/votingapp/contracts/Voting.sol",
  "compiler": {
    "name": "solc",
    "version": "0.5.16+commit.9c3226ce.Emscripten.clang"
  },
  "schemaVersion": "3.0.22",
  "updatedAt": "2020-09-29T06:37:33.872Z",
  "devdoc": {
    "methods": {}
  },
  "userdoc": {
    "methods": {}
  }
}